:020000040800F2
:1000000000200020CD390008992600089F2600080E
:1000100000000000000000000000000000000000E0
:10002000000000000000000000000000A5260008FD
:100030000000000000000000AF260008B9260008FC
:100040001D3A0008000000001D3A00081D3A000893
:100050001D3A0008C72600081D3A0008D7260008E8
:1000600000000000ED260008052700081D3A0008E2
:100070001D3A00081D2700081D3A00080000000076
:100080001D3A000800000000000000003D270008A5
:1000900000000000552700086D2700081D3A0008E1
:1000A0001D3A0008852700089D270008B52700088D
:0800B000CD270008000000004C
:1000B80010B5064C2378002B07D1054B002B02D036
:1000C800044800E000BF0123237010BD0C0000208D
:1000D80000000000B0990008044B10B5002B03D0B5
:1000E8000349044800E000BF10BDC04600000000FE
:1000F80010000020B0990008002243088B4274D3F6
:1001080003098B425FD3030A8B4244D3030B8B4210
:1001180028D3030C8B420DD3FF22090212BA030C19
:100128008B4202D31212090265D0030B8B4219D3FA
:1001380000E0090AC30B8B4201D3CB03C01A52411A
:10014800830B8B4201D38B03C01A5241430B8B4262
:1001580001D34B03C01A5241030B8B4201D30B034B
:10016800C01A5241C30A8B4201D3CB02C01A524172
:10017800830A8B4201D38B02C01A5241430A8B4235
:1001880001D34B02C01A5241030A8B4201D30B021E
:10019800C01A5241CDD2C3098B4201D3CB01C01A38
:1001A800524183098B4201D38B01C01A5241430942
:1001B8008B4201D34B01C01A524103098B4201D330
:1001C8000B01C01A5241C3088B4201D3CB00C01A9D
:1001D800524183088B4201D38B00C01A5241430815
:1001E8008B4201D34B00C01A5241411A00D201463A
:1001F800524110467047FFE701B5002000F0F0F8C3
:1002080002BDC0460029F7D076E7704703460B4386
:100218007FD4002243088B4274D303098B425FD3F7
:10022800030A8B4244D3030B8B4228D3030C8B4223
:100238000DD3FF22090212BA030C8B4202D3121209
:10024800090265D0030B8B4219D300E0090AC30BDE
:100258008B4201D3CB03C01A5241830B8B4201D38B
:100268008B03C01A5241430B8B4201D34B03C01A74
:100278005241030B8B4201D30B03C01A5241C30AEC
:100288008B4201D3CB02C01A5241830A8B4201D35D
:100298008B02C01A5241430A8B4201D34B02C01A47
:1002A8005241030A8B4201D30B02C01A5241CDD2EC
:1002B800C3098B4201D3CB01C01A524183098B4237
:1002C80001D38B01C01A524143098B4201D34B0120
:1002D800C01A524103098B4201D30B01C01A524183
:1002E800C3088B4201D3CB00C01A524183088B420A
:1002F80001D38B00C01A524143088B4201D34B00F3
:10030800C01A5241411A00D2014652411046704764
:100318005DE0CA0F00D04942031000D34042534069
:1003280000229C4603098B422DD3030A8B4212D329
:10033800FC22890112BA030A8B420CD3890192115B
:100348008B4208D3890192118B4204D389013AD098
:10035800921100E08909C3098B4201D3CB01C01A6D
:10036800524183098B4201D38B01C01A5241430980
:100378008B4201D34B01C01A524103098B4201D36E
:100388000B01C01A5241C3088B4201D3CB00C01ADB
:10039800524183088B4201D38B00C01A5241D9D2F3
:1003A80043088B4201D34B00C01A5241411A00D274
:1003B8000146634652415B10104601D34042002B70
:1003C80000D54942704763465B1000D3404201B5EF
:1003D800002000F005F802BD0029F8D016E77047A4
:1003E8007047C046844608006146FFE71FB500F025
:1003F800CFF9002801D40021C8421FBD10B500F074
:100408005BF94042013010BD10B500F0C1F9002879
:1004180001DB002010BD012010BDC04610B500F062
:10042800B7F9002801DD002010BD012010BDC0462D
:1004380010B500F067F9002801DC002010BD01208C
:1004480010BDC04610B500F05DF9002801DA0020A3
:1004580010BD012010BDC0469E2110B5C905041C61
:10046800FFF7F0FF002803D1201C00F083FB10BD2C
:100478009E21201CC90500F0CFF900F07BFB8023EA
:100488001B069C466044F2E7F0B54F464646D64602
:100498004502C0B547000C1C6D0A3F0EC60F002F61
:1004A80000D170E0FF2F00D175E0EB008025ED044E
:1004B8001D43002399469A467F3F6002430A9846A7
:1004C80063001B0EE40F002B4ED0FF2B46D0424694
:1004D800D0008022D2040243904600227F3B3100A4
:1004E800FF1A4B466140C9B213430F2B00D9B5E040
:1004F8006E489B00C3589F460023984626004546F1
:1005080092465346022B00D189E0032B00D19EE08E
:10051800012B18D03B007F33002B69DD6A0704D01C
:100528000F222A40042A00D004352A0103D5604B43
:100538001D403B008033FE2B00DD70E0AD016D0AED
:10054800D8B202E00E0000200025C0052843F607B7
:100558003043E0BCBA46B146A846F0BD4346002B3E
:100568003FD10222FF3F03E04346002B2DD1012259
:1005780031004B466140C9B213430F2B34D84D4864
:100588009B00C3589F46002D13D104239946033B73
:1005980000279A4691E7002D05D108239946063B86
:1005A800FF279A4689E70C239946093BFF279A4675
:1005B80083E7280000F01CFC7627431F9D4000239A
:1005C8007F4299469A463F1A77E7404600F010FC6A
:1005D8004246431F9A4076235B4290461B1A0022EC
:1005E8007DE7FF2303227AE70E00FF200025ACE712
:1005F8000120C01A1B28A6DC9E372A00BD40C24035
:100608006B1E9D4115436B0704D00F232B40042B11
:1006180000D004356B0144D50120002595E7FF2063
:10062800002592E780250026FF20ED038DE70023B3
:1006380098468020C003054209D04346034206D1AC
:10064800454605436D022600FF206D0A7DE78020A0
:10065800C00305436D02FF206D0A76E742466B0131
:100668005001834219D21B220025013F01261C009C
:100678006D005B00002C01DB984201D81B1A354342
:10068800013A002AF3D15A1E93411D433B007F33A0
:100698000E00002B00DD41E7AAE71A2201251B1AEC
:1006A800E4E7AD0100206D0A4FE7C046D099000885
:1006B800FFFFFFF7109A000870B5420045024E028E
:1006C8004C00C30F6D0A0120120E760A240EC90FC2
:1006D800FF2A06D0FF2C03D0A24201D1B54206D092
:1006E80070BD002DFCD1FF2CFAD1002EF8D18B4221
:1006F80006D00120002AF3D12800431E9841EFE7D5
:100708000020EDE770B5420045024E024C00C30FD1
:100718006D0A120E760A240EC80FFF2A1BD0FF2C72
:100728000ED0002A1BD1002C01D1002E1CD0002D88
:100738000CD083421CD00221581E0840013870BDDD
:10074800002E22D1002AF4D1002DF2D10028F6D1B2
:1007580001204042F3E7002D17D1FF2CF0D0002CE8
:10076800E7D1002EE5D1E6E70020002DE7D0E2E74B
:10077800A24205DCEADBB54202D8E7D30020DEE777
:100788004342584140000138D9E702204042D6E7A9
:1007980070B5420045024E024C00C30F6D0A120E9E
:1007A800760A240EC80FFF2A0BD0FF2C0DD0002A82
:1007B8001FD1002C16D1002E14D10020002D10D0EE
:1007C80009E0002D0CD1FF2C13D1002E08D1002AEE
:1007D80008D0834212D00221581E0840013800E098
:1007E800022070BD002DF4D10028FAD1012040422A
:1007F800F7E7002CEDD1002EEBD1ECE7A24205DCA7
:10080800F2DBB54202D8EFD30020EAE74342584171
:1008180040000138E5E7C046F8B5CE4647464302F2
:100828005B0A4E02DA009446720A914645004A0075
:1008380080B52D0E1F00C40F120EC90FB609FF2A6E
:100848005BD0012041408C4239D0A81A00285ADDDB
:10085800002A6AD0FF2D00D1D9E08022D2041643A5
:100868001B2800DCE9E001206346181A430100D484
:10087800B4E080018709380000F0BAFA05388740EB
:10088800854200DCCCE02D1AB5483840430704D037
:100898000F230340042B00D00430430100D4A0E010
:1008A8006A1CFE2D00D18DE08001470AD2B2D00526
:1008B8003843E4072043C0BCB946B046F8BDA81A7F
:1008C8008046002845DD002A70D0FF2D00D19EE02B
:1008D8008023DB041E4343461B2B00DCD2E00120AF
:1008E800604443017AD50135FF2D6BD001239D4A21
:1008F8000340400810401843C8E7002E20D08C421F
:1009080023D02800FF38002839D0571B002D00D0ED
:100918009DE06346002B00D1DBE07B1E012F00D158
:100928000DE1FF2F71D01F0098E0002E00D1A7E045
:10093800421E012800D1E6E0FF2868D010008FE7AA
:1009480001204140A14200D07FE7FF20404280467D
:10095800A8444046002838D0511B002D00D1AEE0F5
:10096800FF2A00D1DFE080236046DB041843844679
:100978001B2900DCD9E0012015008019B1E7FE2011
:100988006A1C104271D1002D00D0A6E06346002BEE
:1009980000D1D9E00022002E00D188E7981B43013E
:1009A80000D4E1E063460C00F01A6FE7002E00D196
:1009B800B7E00200013A012800D19CE0FF2826D0C8
:1009C800904688E7FF22002771E7FE206A1C104244
:1009D80064D0FF2AF6D0150066447008430700D09B
:1009E80056E7C308FF2D12D05B025F0AEAB25EE742
:1009F8006246002A00D196E0002E08D08022D20359
:100A0800134204D04846104201D10C004B46002B3B
:100A1800D8D08027FF031F437F02FF227F0A46E7C3
:100A280020233A00451B38000135EA405D1BA840E9
:100A3800431E98410025104328E720231B1A320043
:100A48009E40C2403000431E984110430CE7FF2AE5
:100A5800DBD080236046DB04184384461B2F56DD19
:100A680001200C001500301A00E763469F1B7B012C
:100A78003DD4002F00D0FEE600240022002716E710
:100A88000500AFE7320043464146DA4020235B1AAF
:100A98009E403000431E9841104321E7002DA7D106
:100AA8006346002B59D00022002E00D1FFE630000B
:100AB8006044430192D52A4B013518408EE76346BE
:100AC800002B47D04B1E012915D0FF292BD0190028
:100AD8004EE70C004B463D0084E76246002A8BD166
:100AE800002E92D180270024FF22FF03DFE6634611
:100AF8000C00F71ABFE6300060440125430100D41A
:100B08006CE70225F2E663460125981BAEE6202332
:100B180064466046FC40DF1BB840431E98412043B2
:100B28009FE705005EE74B4671E720236546604670
:100B3800CD40591A8840431E984128431CE7634614
:100B48000C000125F01A91E6002E95D00C004F46B6
:100B58000022ACE64B460D0044E74F460022A6E6CD
:100B6800FFFFFFFBFFFFFF7D002800D036E70024D2
:100B780000279CE641024200C30F490A0020120EDA
:100B88007E2A03DD9D2A02DD094A981870478020D5
:100B980000040143952A07DC9620821AD140484276
:100BA800002BF3D10800F1E7963A9140F7E7C046E9
:100BB800FFFFFF7FF8B5002813D0C317C6185E40A3
:100BC800C40F300000F014F99E2305001B1A962B61
:100BD8000FDC082801DD083DAE407602760AD8B25F
:100BE80002E0002400200026C0053043E40720432B
:100BF800F8BD992B0CDD05223100121AD1400A00EC
:100C0800010030001B318840411E88410243160014
:100C1800052D12DC31000D4F3940720709D00F2025
:100C28003040042805D004314A0102D59F233940B9
:100C38005B1B89014E0AD8B2D6E76A1F964031007D
:100C4800024F39407207F4D0E9E7C046FFFFFFFBC7
:100C580070B543004602C40FFE201B0E591C750ACE
:100C680008420CD0E022920094466D07360B63448C
:100C78001B053343E40723432800190070BD002BEC
:100C880014D1002D1BD0280000F0B2F80A281CDC73
:100C98000B232E001B1ADE40030015339D400E4A1D
:100CA8003603121A5205360B530DE1E7002D09D011
:100CB8008022360B1203094B6D071643D8E7002331
:100CC8000026D5E70026054BD2E703000B3B9D40E5
:100CD8002E000025E3E7C04689030000FF07000057
:100CE80002004B00F0B55B0D0C033D4E640A400F4B
:100CF8005F1CC90F0443D50037420AD039481E1873
:100D0800FE2E16DDFF200024C0052043C907084336
:100D1800F0BD002B06D12C4326D005229201540A9F
:100D2800D8B2F1E72543EDD08020C0030443FF206B
:100D3800EAE7002E1BDD9201531E9A41E4006D0F75
:100D480022432A43530748D00F231340042B00D0D3
:100D580004328023DB0413403FD0701CFE2ED1D018
:100D68009201540AC0B2CFE700200024CCE7320039
:100D7800173222DB8020000420431E24A41B1F2CD2
:100D88001DDD02225242961B0200F2401600202C62
:100D980004D0154A94466344984005432A00531EDC
:100DA8009A41324300265307CED180241300E4042D
:100DB800012023402242D3D1B0E70023ADE70B4AFC
:100DC80094462A00E24014002A0063449A4098405E
:100DD800551EAA4102432243E4E733009EE7C0467A
:100DE800FE07000080FCFFFFA2FCFFFF82FCFFFF64
:100DF8001C2101231B04984201D3000C10391B0A43
:100E0800984201D3000A08391B09984201D3000906
:100E1800043902A2105C40187047C046040302025D
:100E280001010101000000000000000080B582B04F
:100E380000AF786039607B683A681A607B68002286
:100E48001A627B68164A9A607B6800221A637B687C
:100E5800144A9A617B6800229A627B68124A1A6176
:100E68007B682422002199547B6802221A737B68CC
:100E78000022DA627B680D4A5A617B680C4ADA61A3
:100E88007B680C4A5A607B6818687B684C3306227A
:100E9800190006F05FFCC046BD4602B080BDC046E2
:100EA8000000F04200007F43008026440000964383
:100EB8000000704100000C4280B582B000AF78603D
:100EC8007B6861229B5CF92B07D87B6861229B5C5D
:100ED8000133D9B27B68612299547B6861229B5C9B
:100EE800142B03D97B68622200219954C046BD4661
:100EF80002B080BD80B584B000AF786008203B1890
:100F0800074A1168196012791A7139187B68052225
:100F1800180000F007F8C046BD4604B080BDC046C2
:100F2800C899000880B584B000AFF860B960FB1DAF
:100F38001A70FB681868FB1D1B789AB2B96864239D
:100F480006F06CFBC046BD4604B080BD80B582B0DB
:100F580000AF78607B685E229B5C012B1BD17B68AD
:100F68006222012199547B685E22002199547B6892
:100F78004E229B5C052B0ED17B684F229B5C102B6D
:100F880009D17B685022995C7B685F2299547B6801
:100F9800612200219954C046BD4602B080BD0000C0
:100FA80080B584B000AF3B1D18000C231A00002147
:100FB80008F0F2FC344B354A1A60334B8022D205D4
:100FC8005A60314B00229A602F4B0022DA602E4B78
:100FD800802292031A612C4B04225A612A4B002268
:100FE8001A76294B00225A76274B00229A76264BEE
:100FF8000222DA61244B202200219954224B00223C
:101008005A62214B00229A621F4B2C2200219954CC
:101018001D4B00221A631C4B07225A631A4B0022ED
:101028009A63194B3C2200219954174B0022DA6429
:10103800154B180002F098FE031E01D001F0CAF902
:101048003B1D134A1A603B1D00225A603B1D0022BB
:101058009A603A1D0C4B1100180003F02DF8031E7E
:1010680001D001F0B7F93B1D04225A603A1D064B26
:101078001100180003F020F8031E01D001F0AAF9AE
:10108800C046BD4604B080BD2800002000240140B1
:101098000200000490B58BB000AF786014243B19AF
:1010A800180014231A00002108F076FC7B681B68DE
:1010B8002D4A934254D12D4B1A6C2C4B8021490355
:1010C8000A431A64294B1A6C80235B0313403B6163
:1010D8003B69264B5A6B254B01210A435A63234B24
:1010E8005B6B01221340FB60FB683B1902221A600C
:1010F8003B1903225A603B1900229A603A19A0232F
:10110800DB051100180003F0B5FD194B194A1A60E8
:10111800174B05225A60164B00229A60144B002286
:10112800DA60134B80221A61114B802252005A61F7
:101138000F4B8022D2009A610D4B0022DA610C4BD2
:1011480000221A620A4B180003F06CFA031E01D041
:1011580001F040F97B68064A1A65054B7A689A627D
:10116800C046BD460BB090BD0024014000100240AF
:101178008C0000201C00024080B582B000AF020045
:10118800FB1D1A70FB1D1B78002B02D0012B02D00F
:1011980003E0012302E0012300E001231800BD461B
:1011A80002B080BD80B584B000AF78600023FB60DA
:1011B8007B68DB7A013301229A4013001A00FB682E
:1011C8001343FB607B68DB7A1800FFF7D5FF031E2B
:1011D80003D0FB6810221343FB607A4B5B7B002B28
:1011E80007D0FB6840221343FB60FB6801221343CE
:1011F800FB60754B9B7D002B07D0FB688022134357
:10120800FB60FB6801221343FB606F4B5B7D002B87
:1012180008D0FB68802252001343FB60FB68012260
:101228001343FB60694B5F229B5C8D2B00D9C1E0A7
:101238009A00674BD3181B689F46FB68012213432B
:10124800FB607B6801221A75B4E07B6801221A757D
:10125800B0E07B6800221A75ACE07B6800221A7542
:10126800A8E0FB68802292001343FB607B680122A0
:101278001A75FB6801221343FB609BE0FB68802220
:10128800D2001343FB607B6801221A75FB680122B8
:101298001343FB608EE0FB68802212011343FB605E
:1012A8007B6801221A75FB6801221343FB6081E009
:1012B800FB68802252011343FB607B6801221A7588
:1012C800FB6801221343FB6074E0FB6880229201F3
:1012D8001343FB607B6801221A75FB6801221343E4
:1012E800FB6067E0FB688022D2011343FB607B68E8
:1012F80001221A75FB6801221343FB605AE0FB6860
:10130800802212021343FB607B6801221A75FB6876
:1013180001221343FB604DE0FB6880225202134315
:10132800FB607B6801221A75FB6801221343FB608E
:1013380040E0FB68802292021343FB607B68012235
:101348001A75FB6801221343FB6033E0FB688022B7
:10135800D2021343FB607B6801221A75FB680122E5
:101368001343FB6026E0FB68802292001343FB6076
:101378007B6801221A75FB6801221343FB6019E0A0
:10138800FB68802252031343FB607B6801221A75B5
:10139800FB6801221343FB600CE0FB688022920388
:1013A8001343FB607B6801221A75FB680122134313
:1013B800FB60C0467B68FA681A61C046BD4604B047
:1013C80080BDC0468002002090020020000200205C
:1013D800509A000880B582B000AF0200BB1D1A8089
:1013E8007B1D0A1C1A70BB1D1A887B1D1B781A41AD
:1013F80013000122134001D0012300E0002318004C
:10140800BD4602B080BD80B582B000AF786039605B
:101418007B683A681A607B680022DA727B6801226E
:101428001A75C046BD4602B080BD80B582B000AF17
:1014380078607B689B7A012B16D17B6800229A72B0
:101448007B681B79012B08D17B681B7A180000F098
:101458000FF8012000F092F806E07B681B79022B58
:1014680002D1022000F08AF8C046BD4602B080BD15
:1014780090B585B000AF0200FB1D1A70FB1D1B78EC
:10148800002B12D10C243B1902221A603919214B66
:101498000422180001F0D4FE39191F4B0422180049
:1014A80001F0CEFE1D4B0022DA72FB1D1B78012BCA
:1014B80020D11A4BDB7A1800FFF75EFE031E19D005
:1014C800164B0122DA7208243B1901221A603919D5
:1014D800104B0422180001F0B3FE39190E4B0422F8
:1014E800180001F0ADFE0E4B1A680C4B9A610B4BBD
:1014F80001225A75FB1D1B78022B08D1074BDB7A9A
:10150800002B03D0054B0222DA7200E0C046BD462C
:1015180005B090BDE800002074010020640200209E
:10152800AC02002080B582B000AF104B5B7D012B70
:1015380018D10F4B1A680D4B9B69D31A052B11D97B
:101548000A4B00225A753B1D03221A60391D094BAC
:101558000422180001F074FE391D074B04221800FC
:1015680001F06EFEC046BD4602B080BD6402002098
:10157800AC020020E800002074010020F0B58DB016
:1015880000AF0200FB1D1A70FB1D1B78012B04D055
:10159800FB1D1B78022B00D091E04B4B1B69BB62F3
:1015A8004A4B80229B587B62494B80229B583B6266
:1015B8002F257B1900221A70464B1B681F26BC1961
:1015C800181CFEF749FF03002370424B9B681E223C
:1015D800BC18181CFEF740FF030023700C217B1871
:1015E800FA1D12781A70BB6A1B0EDAB27B185A7091
:1015F800BB6A1B0CDAB27B189A70BB6A1B0ADAB298
:101608007B18DA70BB6ADAB27B181A717B6A1B0E18
:10161800DAB27B185A717B6A1B0CDAB27B189A71A2
:101628007B6A1B0ADAB27B18DA717B6ADAB27B183A
:101638001A723B6A1B0EDAB27B185A723B6A1B0C91
:10164800DAB27B189A723B6A1B0ADAB27B18DA7232
:101658003B6ADAB27B181A737B18BA1912785A7374
:101668007B181E22BA1812789A737B187A19127886
:10167800DA732E23FB1800221A7010E02E203B1874
:101688001B780C22BA18D15C2F22BB18BA18127812
:101698008A181A703B181A783B1801321A702E23D0
:1016A800FB181B780E2BE9D90C217B182F22BA18AE
:1016B8001278DA737B181021180000F00DF8C04674
:1016C800BD460DB0F0BDC04664020020E800002011
:1016D800740100209002002080B582B000AF7860CD
:1016E8000A00FB1C1A70A023DB0501221021180038
:1016F80003F024FC094B1868FB1C1B789AB2796824
:10170800642305F08BFFA023DB05002210211800BD
:1017180003F014FCC046BD4602B080BD6402002040
:1017280080B500AF774B180000F006F9031E00D112
:10173800DFE0754B9B7C1B02734A527C13439B046E
:101748009B0C1800FFF736FA031C7049181CFEF7AB
:101758009BFE031C1A1C6C4B1A606B4B9B7C1B0278
:10176800694A527C1A4380231B02134010D0664BEF
:101778001B68181CFFF76CFA02000B001000190018
:10178800FFF7AEFA021C80231B065A405E4B1A6014
:101798005D4B1B7D1B025C4AD27C13431800FFF78C
:1017A80009FA031C5949181CFEF76EFE031C1A1C83
:1017B800554B9A60544B1A68534B5B68191C101CA4
:1017C800FFF72AF8031C181CFFF742FA02000B0067
:1017D8001000190008F0B8F80300042B11DD4A4B7B
:1017E8001A68494B5B68191C101CFEF70DFE031E96
:1017F80007D0454B5B680021181CFEF7FFFD031E50
:1018080007D0414B1B680021181CFEF7FDFD031E85
:1018180004D03D4B5A683C4B1A6003E03A4B1A68B7
:10182800394B5A60384B9A68374BDB68191C101CC7
:10183800FEF7F2FF031C181CFFF70AFA02000B0060
:101848001000190008F080F80300042B11DD2E4B5E
:101858009A682D4BDB68191C101CFEF7D5FD031E7A
:1018680007D0294BDB680021181CFEF7C7FD031EB3
:1018780007D0254B9B680021181CFEF7C5FD031EE9
:1018880004D0214BDA68204B9A6003E01E4B9A681B
:101898001D4BDA601C4B1B681C49181CFEF7D2FD57
:1018A800031E0BD0184B1B681949181CFEF7B6FD10
:1018B800031E03D0144B00225A7502E0124B01227A
:1018C8005A75114B9B680021181CFEF7B1FD031EC9
:1018D8000BD00D4B9B680F49181CFEF79FFD031E8C
:1018E80003D0094B00229A7509E0074B01229A752B
:1018F80005E0054B01225A75034B01229A75C04633
:10190800BD4680BDA00200209002002000002041BA
:1019180000000C4200008C4280B500AF80239B0180
:1019280004480122190003F009FB00231800BD46F2
:1019380080BDC0460008005080B584B000AF786014
:101948000E23FB1800221A704E4B5A694D4B4E4914
:101958000A405A614B4B5A694A4B802189010A4314
:101968005A614A4B180000F093F8464B5A69454BA8
:1019780045490A405A61122002F0D4F8414B5A698D
:10198800404B802189010A435A61272000F080F8E2
:101998003C4B1A6980239B01134001D000236DE062
:1019A800502000F075F8374B1A6980239B011340CB
:1019B80001D1002362E0502000F06AF80E23FB18E2
:1019C80000221A7054E00E23FB181B780422D31A45
:1019D8001A007B689B1800221A700F23FB1800223C
:1019E8001A703AE0C046274B1A6980239B011340BE
:1019F800F9D01E2000F04CF8224B1A6980239B0175
:101A080013401DD00E203B181B780422D31A1A004D
:101A18007B689B181B785AB20F23FB181B78072189
:101A2800CB1A012199400B005BB2134359B23B1802
:101A38001B780422D31A1A007B689B18CAB21A7042
:101A4800C046104B1A6980239B011340F9D10F211E
:101A58007B181A787B1801321A700F23FB181B7831
:101A6800072BBFD90E217B181A787B1801321A7000
:101A78000E23FB181B78042BA5D901231800BD469B
:101A880004B080BD00080050FFDFFFFFA086010002
:101A980080B582B000AF78600A4B1B680A4918000D
:101AA800FEF72AFB03001A007B6853437B60C0469D
:101AB8007B685A1E7A60002BFAD1C046C046BD46E4
:101AC80002B080BD000000204054890080B582B07B
:101AD80000AF104B9A6B0F4B01210A439A630D4BD1
:101AE8009B6B012213407B607B6800220021092048
:101AF80002F066FD092002F078FD002200210A208C
:101B080002F05EFD0A2002F070FDC046BD4602B03C
:101B180080BDC0460010024080B582B000AF144BB3
:101B28005A69134B04218A435A61E623FF3318008C
:101B380000F094F80E4B5A690D4B04210A435A6180
:101B4800412000F08BF80A4B1B699AB2BB1D042197
:101B58000A401A80FA235B00180000F07FF8BB1DCA
:101B68001B885A1E9341DBB21800BD4602B080BDE7
:101B78000004005090B585B000AF0200FB1D1A703C
:101B88000F23FB1800221A7015E0FB1D1A780F248A
:101B98003B191B781A411300DBB201221340DBB258
:101BA800180000F013F8052000F058F83B191A78CF
:101BB8003B1901321A700F23FB181B78072BE4D945
:101BC800C046C046BD4605B090BD000080B582B095
:101BD80000AF0200FB1D1A70114B5A69104B04210B
:101BE8008A435A61FB1D1B78002B01D0032300E0B8
:101BF8004123180000F032F8094B5A69084B0421B8
:101C08000A435A61FB1D1B78002B01D0412300E0D9
:101C18000323180000F022F8C046BD4602B080BD7C
:101C28000004005080B500AFFFF776FF031E01D017
:101C380001230FE0CC20FFF79DFF4E20FFF79AFF0E
:101C48006420FFF797FF9E20FFF794FF7F20FFF7A0
:101C580091FF00231800BD4680BD000080B582B00A
:101C680000AF78600A4B1B680A491800FEF744FA6F
:101C780003001A007B6853437B60C0467B685A1E8A
:101C88007A60002BFAD1C046C046BD4602B080BD7E
:101C9800000000204054890090B58BB000AF142498
:101CA8003B19180014231A00002107F075FE8D4B0C
:101CB8005A6B8C4B04210A435A638A4B5B6B042290
:101CC80013403B613B69874B5A6B864B20210A4383
:101CD8005A63844B5B6B20221340FB60FB68814B8B
:101CE8005A6B804B01210A435A637E4B5B6B01227E
:101CF8001340BB60BB687B4B5A6B7A4B02210A438B
:101D08005A63784B5B6B022213407B607B68754B90
:101D18005A6B744B08210A435A63724B5B6B082257
:101D280013403B603B6881239B016F4800221900E8
:101D380003F004F9C8235900A023DB05002218008A
:101D480003F0FCF869496A4B0022180003F0F6F822
:101D580080231902A023DB050122180003F0EEF806
:101D6800644B01220521180003F0E8F8604B0122BA
:101D78004021180003F0E2F83B19802292011A6012
:101D88003B1911225A603B1900229A603B19002224
:101D9800DA603B19544A1900100002F06BFF3B1936
:101DA800554A1A603B1901225A603B1900229A6071
:101DB8003B190022DA603A19A023DB05110018004C
:101DC80002F058FF3B1960221A603B19882252031F
:101DD8005A603B1900229A603A19A023DB051100CA
:101DE800180002F047FF21007B1801221A607B18B7
:101DF800882252035A600C003B1900229A603B1952
:101E08003B4A1900100002F035FF3B193B4A1A60A3
:101E18003B1901225A603B1900229A603B190022A3
:101E2800DA603B19324A1900100002F023FF3B190F
:101E380004221A603B1911225A603B1900229A6049
:101E48003B190022DA603B19294A1900100002F0F8
:101E580011FF3B1940221A603B1901225A603B19B5
:101E680000229A603B190022DA603B191E4A1900C9
:101E7800100002F0FFFE3B1905221A603B190122EF
:101E88005A603B1900229A603B190022DA603B191C
:101E9800184A1900100002F0EDFE21007B18C0223C
:101EA80092001A607B1800225A607B1800229A6000
:101EB8007B180F4A1900100002F0DCFE00220021F6
:101EC800052002F07DFB052002F08FFB0022002197
:101ED800072002F075FB072002F087FBC046BD46CD
:101EE8000BB090BD0010024000080050061C000016
:101EF80000040050000C005090810000421C0000BB
:101F080080B500AF01F088FD00F092F8FFF7C4FE3D
:101F1800FFF7DCFD00F064FA00F0A0FA00F0B6FD6F
:101F280000F002FE00F00AFD00F0BEFC00F0E0FC4C
:101F380000F05EFCFFF734F800F024F9314A324B28
:101F480011001800FEF772FFFFF76CFEFFF7E4FCC4
:101F58002E4A2F4B11001800FFF755FA2D4B180089
:101F680004F0E0FE294B1B681A68284B1B681021F7
:101F78000A431A602849254B1422180005F041FC31
:101F8800264B1B78012B32D1244B00221A70204B90
:101F98001800FFF707F9224B180000F0FFFF214B4C
:101FA800180000F0FBFFFFF7BBFB1F4B01221A7064
:101FB8001E4B1B685A1C1D4B1A60134B1800FEF76A
:101FC8007BFF174B180000F02FFF154B180000F08F
:101FD8002BFF134B180001F021F9124B180001F0E8
:101FE8001DF9094B1800FEF785FF00F075F8FFF79B
:101FF80099FA054B1800FEF7A9FF054B1800FFF7E3
:1020080014FABDE7C0040020000200205405002097
:102018006402002090030020B4020020A8020020DF
:10202800E800002074010020B0020020AC0200206B
:1020380090B593B000AF14243B19180034231A004C
:10204800002107F0A9FC3B1D180010231A000021ED
:1020580007F0A2FC80239B00180002F0C1FF3B1987
:1020680001221A603B19802252025A6021007B1813
:102078000222DA617B1803221A627B1800225A6254
:102088007B1810229A627B1880229202DA627B18EF
:10209800802292051A637B18180002F0EDFF031ED8
:1020A80001D000F097F93B1D07221A603B1D022260
:1020B8005A603B1D00229A603B1D0022DA603B1DDE
:1020C8000221180003F0E8FA031E01D000F082F99B
:1020D800C046BD4613B090BD80B500AF274BDB7A34
:1020E800002B15D18023DB0025480122190002F0BE
:1020F80025FF80231B0122480022190002F01EFF41
:1021080080235B011E480022190002F017FF32E00D
:102118001A4BDB7A012B15D18023DB0018480022EB
:10212800190002F00BFF80231B011548012219003A
:1021380002F004FF80235B0111480022190002F01D
:10214800FDFE18E00D4BDB7A022B14D18023DB0057
:102158000B480022190002F0F1FE80231B010848F9
:102168000022190002F0EAFE80235B0104480122E4
:10217800190002F0E3FEC046BD4680BD640200209F
:102188000004005080B58AB00AAF394A39493A4844
:1021980001230993364B089380235B000793374B41
:1021A800069302230593324B049304230393304B85
:1021B800029380230193314B0093082301F0C4F963
:1021C8002E4A2F492F4880231B020993A023DB05A1
:1021D800089380239B000793284B069308230593B5
:1021E800264B049340230393244B0293202301930B
:1021F800224B0093102301F0A7F91E4B6C22C0213B
:1022080099541C4B6D22A82199541A4B6E220A210D
:102218009954184B6F2205219954164B7022EA21C4
:102228009954144B712260219954154B6C22C0218A
:102238009954134B6D22A8219954114B6E220A21EF
:1022480099540F4B6F22062199540D4B7022EA21A5
:1022580099540B4B712260219954064B180000F0D9
:1022680099FF074B180000F095FFC046BD4680BD9A
:10227800000C0050E80000202C030020000400504F
:1022880074010020C802002080B582B000AF0200AF
:10229800BB1D1A80BB1D1B88012B0AD1164B0122BE
:1022A8004021180002F04AFE144B180004F03AFDD1
:1022B8001EE0BB1D1B88402B0AD1114B01220221B5
:1022C800180002F03BFE0F4B180004F02BFD0FE046
:1022D800BB1D1B88202B0BD180235900A023DB05B5
:1022E8000122180002F02AFE074B180004F01AFD1C
:1022F800C046BD4602B080BD00080050DC03002087
:1023080000040050280400207404002080B582B026
:1023180000AF78607A68184B9A420AD1174B0022AE
:102328004021180002F00AFE134B180004F048FD83
:102338001EE07A68124B9A420AD1124B00220221FF
:10234800180002F0FBFD0E4B180004F039FD0FE0F9
:102358007A680D4B9A420BD180235900A023DB05E4
:102368000022180002F0EAFD074B180004F028FDCF
:10237800C046BD4602B080BDDC0300200008005006
:1023880028040020000400507404002080B582B0A6
:1023980000AF7860094B1B687A689A420AD1074BEC
:1023A8005E2201219954054B1B6805490622180035
:1023B80005F0D0F9C046BD4602B080BD000200203D
:1023C8004C02002080B582B000AF7860C046BD46A0
:1023D80002B080BD80B500AF72B6C046FEE700000F
:1023E80080B500AF1B4B1C4A1A601A4B8222520060
:1023F8005A60184B00229A60164BE022D200DA602D
:10240800144B00221A61134B00225A61114B80228F
:1024180092009A610F4B2822DA610E4B00221A6251
:102428000C4B00225A620B4B00229A62094B07227E
:10243800DA62084B00221A63064B08225A63054BDE
:10244800180003F0F9FB031E01D0FFF7C3FFC046D5
:10245800BD4680BDC80200200030014080B500AFF5
:102468001B4B1C4A1A601A4B822252005A60184BA6
:1024780000229A60164BE022D200DA60144B002248
:102488001A61134B00225A61114B802292009A6103
:102498000F4B3822DA610E4B00221A620C4B0022D5
:1024A8005A620B4B00229A62094B0722DA62084BE8
:1024B80000221A63064B08225A63054B180003F0E2
:1024C800BBFB031E01D0FFF785FFC046BD4680BD9C
:1024D8002C0300200038004090B58DB000AF786024
:1024E8001C243B19180014231A00002107F054FA81
:1024F8007B681B684F4A934238D14F4B1A6C4E4B3E
:10250800802149010A431A644B4B1A6C80235B01F2
:102518001340BB61BB69484B5A6B474B02210A43C6
:102528005A63454B5B6B022213407B617B69210038
:102538007B1838221A607B1802225A607B18002206
:102548009A607B180022DA607B1800221A617B18D7
:102558003A4A1900100002F08DFB002200211920D0
:1025680002F02EF8192002F040F85EE07B681B6844
:10257800334A934259D1304BDA6B2F4B8021C90132
:102588000A43DA632C4BDA6B8023DB0113403B618F
:102598003B69294B5A6B284B08210A435A63264B3F
:1025A8005B6B08221340FB60FB68234B5A6B224B82
:1025B80002210A435A63204B5B6B02221340BB6023
:1025C800BB681C243B190A221A603B1902225A6074
:1025D8003B1900229A603B190022DA603B1901225C
:1025E8001A613B19174A1900100002F043FB210039
:1025F8007B1880221A607B1802225A607B180022FE
:102608009A607B180022DA607B1801221A617B1815
:102618000A4A1900100002F02DFB002200211A209E
:1026280001F0CEFF1A2001F0E0FFC046BD460DB014
:1026380090BDC04600300140001002400004005028
:1026480000380040000C005080B582B000AF0F4B3E
:102658001A6C0E4B01210A431A640C4B1B6C0122A5
:1026680013407B607B68094BDA6B084B8021490576
:102678000A43DA63054BDA6B80235B0513403B6042
:102688003B68C046BD4602B080BDC046001002404F
:1026980080B500AFFEE780B500AFFEE780B500AFBC
:1026A800C046BD4680BD80B500AFC046BD4680BDB2
:1026B80080B500AF01F01AFAC046BD4680BD80B5AE
:1026C80000AF012002F058FCC046BD4680BD80B571
:1026D80000AF202002F050FC402002F04DFCC04624
:1026E800BD4680BD80B500AF034B180002F076F9F7
:1026F800C046BD4680BDC046E805002080B500AF95
:10270800034B180002F06AF9C046BD4680BDC046BA
:102718008C00002080B500AF044B01221A70044BD6
:10272800180004F07BFBC046BD4680BDA80200200F
:102738009003002080B500AF034B180004F06EFB37
:10274800C046BD4680BDC046DC03002080B500AF52
:10275800034B180004F062FBC046BD4680BDC0466E
:102768002804002080B500AF034B180004F056FB86
:10277800C046BD4680BDC0467404002080B500AF89
:10278800034B180003F086FFC046BD4680BDC04617
:10279800C802002080B500AF034B180003F07AFF91
:1027A800C046BD4680BDC0462C03002080B500AFA2
:1027B800034B180005F010F9C046BD4680BDC04661
:1027C800C004002080B500AF054B180005F004F9DF
:1027D800034B180000F0B6FAC046BD4680BDC0469F
:1027E8005405002080B500AFC046BD4680BD00003E
:1027F80080B588B000AF1023FB18180010231A000A
:10280800002107F0C9F83B1D18000C231A0000210D
:1028180007F0C2F8214B224A1A60204B214A5A601D
:102828001E4B00229A601D4BFA229200DA601B4B65
:1028380000221A61194B00225A61184B00229A6132
:10284800164B180004F016FA031E01D0FFF7C2FD5C
:1028580010217B18802252011A607A180F4B110040
:10286800180004F00DFC031E01D0FFF7B3FD3B1D5B
:1028780000221A603B1D00225A603B1D00229A600C
:102888003A1D064B1100180004F0F8FD031E01D094
:10289800FFF7A0FDC046BD4608B080BD90030020EC
:1028A800002C0140FFF9000080B500AF0E4B0F4A25
:1028B8001A600D4B3F225A600B4B00229A600A4B5C
:1028C8000522DA60084B00221A61074B00229A6140
:1028D800054B180004F0CEF9031E01D0FFF77AFD6E
:1028E800C046BD4680BDC046DC0300200020004035
:1028F80080B500AF0F4B104A1A600E4B3F225A604A
:102908000C4B00229A600B4B0522DA60094B00221F
:102918001A61084B00225A61064B00229A61054B46
:10292800180004F0A7F9031E01D0FFF753FDC046B5
:10293800BD4680BD280400200044014080B500AF9A
:102948000F4B104A1A600E4B3F225A600C4B002264
:102958009A600B4BFA22DA60094B00221A61084B85
:1029680000225A61064B00229A61054B180004F0B8
:1029780081F9031E01D0FFF72DFDC046BD4680BD7D
:10298800740400200048014080B586B000AF78602C
:102998007B681B68384A934216D1384B1A6C374B00
:1029A800802109010A431A64344B1A6C80231B01E5
:1029B80013407B617B69002200210D2001F000FE9D
:1029C8000D2001F012FE52E07B681B682C4A9342EE
:1029D80016D12A4B1A6C294B802109020A431A6422
:1029E800264B1A6C80231B0213403B613B69002273
:1029F8000021132001F0E4FD132001F0F6FD36E07C
:102A08007B681B681F4A934216D11C4B1A6C1B4BE0
:102A1800802189020A431A64184B1A6C80239B028E
:102A28001340FB60FB6800220021152001F0C8FD5F
:102A3800152001F0DAFD1AE07B681B68124A934200
:102A480015D10E4B1A6C0D4B8021C9020A431A642A
:102A58000A4B1A6C8023DB021340BB60BB68002260
:102A68000021162001F0ACFD162001F0BEFDC04685
:102A7800BD4606B080BDC046002C01400010024093
:102A880000200040004401400048014080B500AFEC
:102A9800234B244A1A60224B962212025A60204B7A
:102AA80000229A601E4B0022DA601D4B00221A6138
:102AB8001B4B0C225A611A4B00229A61184B0022B8
:102AC800DA61174B00221A62154B00225A62144B26
:102AD80000229A62124B180004F04AFD031E01D02E
:102AE800FFF778FC0E4B0021180006F04DFE031E80
:102AF80001D0FFF76FFC0A4B0021180006F084FE96
:102B0800031E01D0FFF766FC054B180006F002FE15
:102B1800031E01D0FFF75EFCC046BD4680BDC0461F
:102B2800C00400200038014080B500AF164B174A9A
:102B38001A60154BE12252025A60134B00229A6028
:102B4800114B0022DA60104B00221A610E4B0C2246
:102B58005A610D4B00229A610B4B0022DA610A4B35
:102B680000221A62084B00225A62074B00229A621E
:102B7800054B180004F0FCFC031E01D0FFF72AFCEB
:102B8800C046BD4680BDC0465405002000440040F4
:102B980090B593B000AF78603423FB181800142365
:102BA8001A00002106F0F8FE1C243B19180018230F
:102BB8001A00002106F0F0FE7B681B685C4A93420D
:102BC80048D13B1901221A603B1900225A603B196F
:102BD800180002F00BFF031E01D0FFF7FBFB554B5B
:102BE8001A6C544B8021C9010A431A64514B1A6C60
:102BF8008023DB011340BB61BB694E4B5A6B4D4BC5
:102C080001210A435A634B4B5B6B012213407B61E2
:102C18007B6934217B18C022D2001A607B180222FB
:102C28005A607B1800229A607B180022DA607B18B1
:102C380001221A617A18A023DB051100180002F09E
:102C480019F8002200211B2001F0BAFC1B2001F01A
:102C5800CCFC68E07B681B68374A934263D1354BEC
:102C6800DA6B344B802189020A43DA63314BDA6B21
:102C780080239B0213403B613B692E4B5A6B2D4BC3
:102C880001210A435A632B4B5B6B01221340FB6003
:102C9800FB6834217B180C221A607B1802225A60C8
:102CA8007B1800229A607B180022DA607B180122C8
:102CB8001A617A18A023DB051100180001F0DAFF69
:102CC8001E4B1F4A1A601D4B34225A601B4B0022B0
:102CD8009A601A4B0022DA60184B80221A61174B4F
:102CE80000225A61154B00229A61144B0022DA61C6
:102CF800124B802292011A62104B180001F092FCCC
:102D0800031E01D0FFF766FB7B6880210B4A5A50EF
:102D18000A4B7A689A62002200211C2001F050FCBC
:102D28001C2001F062FCC046BD4613B090BDC046F1
:102D3800003801400010024000440040E80500202F
:102D48000800024080B582B000AF78600B4B1B686A
:102D58000B4A93420ED1094B1B68DB6910221340C2
:102D6800102B07D17B681B6810221A627B68180039
:102D780000F008F8C046BD4602B080BD54050020EA
:102D88000044004090B585B000AF7860224B180031
:102D980004F08EFD214B1B685B68DAB20E203B18ED
:102DA80014218A1A1A703B181B78062B1FD10F237F
:102DB800FB1800221A700FE00F203B181A783B18F6
:102DC8001B781749895C174AD3180A1C1A713B18D3
:102DD8001A783B1801321A700F23FA180E23FB18C1
:102DE80012781B789A42E7D30E4B01229A720E246E
:102DF8003B191A780A4B0021180006F0CDFD3B1943
:102E080000221A700649044B1422180004F0F9FC39
:102E1800C046BD4605B090BD54050020E805002019
:102E2800B40200206402002080B582B000AF786050
:102E38007B6884229B5CF92B07D87B6884229B5C87
:102E48000133D9B27B68842299547B6884229B5CC5
:102E5800142B03D97B687C2200219954C046BD46B7
:102E680002B080BD90B585B000AF78600023FB60EC
:102E78000B23FB1800221A700A23FB1807221A706A
:102E88001EE07B6874229B5A1A000A243B191B789F
:102E980019001000FEF79EFA03001A000B217B1898
:102EA8001B789A401300FA681343FB607B181A7862
:102EB8007B1801321A703B191A783B1901321A70C3
:102EC8000A23FB181B780D2BDBD90923FB180022DA
:102ED8001A7056E00823FB1804221A7046E00820EE
:102EE8003B181B78072B1BD10923FB181B787A6822
:102EF8007621D3185B181B781A003B181B78190029
:102F08001000FEF767FA03000122D31A1A000B23F8
:102F1800FB181B789A401300FA681343FB6019E00A
:102F28000923FB181B787A687621D3185B181B785D
:102F38001A000823FB181B7819001000FEF74AFA3C
:102F480003001A000B23FB181B789A401300FA6839
:102F58001343FB600B217B181A787B1801321A7017
:102F680008217B181A787B1801321A700823FB187D
:102F78001B78072BB3D909217B181A787B180132E3
:102F88001A700923FB181B78052BA3D97B688021AD
:102F9800FA685A50C046BD4605B090BDB0B584B079
:102FA80000AF78607B68180000F012FA03001A007E
:102FB8007B681A847B681B8C002B00D198E08523E2
:102FC800DA007B681100180000F030FA03009AB2AA
:102FD8000C243B1912021A80474A7B68110018001A
:102FE80000F024FA030099B23B193A1912888A189A
:102FF8001A800A23FB18C022D2011A807B681B8C16
:103008001E2B0BD97B68180000F036FB7B68180074
:1030180000F0C0F87B687222002199520E23FB1839
:1030280000221A801EE00A23FA180E217B18128843
:103038001B88D3189AB20C23FB181B88D3189AB292
:103048000D007B181C887B681100180000F0EEF951
:1030580003001A007B681B195A707B191A887B19A0
:1030680001321A807B681B8C0E22BA1812889A4289
:10307800D9D37B68198C0C243B193A1912888A1801
:103088001A807B682222012199543B191B881B0A4C
:103098009BB2DAB28523D9007B68180000F01FFACA
:1030A8003B191B88DAB214497B68180000F017FA3C
:1030B80012497B684022180000F011FA3B191A885F
:1030C8007B681B8C190080239B015B1A9A420BDBDF
:1030D8007B68180000F0D0FA7B68180000F05AF8F6
:1030E8007B687222002199527B68180000F008F86A
:1030F800C046BD4604B0B0BD29040000010400006C
:1031080090B585B000AF78607B685B7A182B3DD1AD
:103118007B681B7B9BB21B0299B27B687422995215
:103128007B6874229A5A7B68DB7A9BB2D31899B26F
:103138007B68742299520F23FB1800221A7014E03E
:103148000F243B191B780C331A003B191B7879683C
:103158008A1850787A687621D3185B18021C1A707E
:103168003B191A783B1901321A700F23FB181B7888
:10317800052BE5D97B687C22012199547B68842240
:10318800002199547B681800FFF76CFEC046BD46C5
:1031980005B090BD80B582B000AF78607B686C22C6
:1031A8009A5C19497B68180000F099F97B686D22D0
:1031B8009A5C16497B68180000F091F97B686E22CA
:1031C8009A5C13497B68180000F089F97B686F22C4
:1031D8009A5C10497B68180000F081F97B687022BE
:1031E8009A5C8223D9007B68180000F078F97B6824
:1031F80071229A5C08497B68180000F070F9C04693
:10320800BD4602B080BDC0460C0400000D0400009D
:103218000E0400000F0400001104000080B584B003
:1032280000AF78600C217B1818221A6079187B6827
:103238000422180000F004F8C046BD4604B080BD62
:10324800F0B5C64600B58EB000AF786239621F216E
:103258007B181A706B4698467B181B781A00013A3F
:10326800FA62BB600022FA60B868F9680200520F7F
:103278000E00F6007E617E6916437E610200D20070
:103288003A613B6000227A60386879680200520F20
:103298000E00F50015430200D4000733DB08DB00FD
:1032A8006A46D31A9D466B460033BB6200233B63D4
:1032B8000CE03B6A1978BA6A3B6BD3180A1C1A707F
:1032C8003B6A01333B623B6B01333B631F23FB18B3
:1032D8001B783A6B9A42ECDB1F2318229B18DB19E8
:1032E80000221A7020E01F2018254319DB191B78CB
:1032F8009AB27B6A72215B5AD3189BB28022D201A0
:103308009446634499B204004319DB191B78BA6ADE
:10331800D25C7B6A180000F0E2F86319DB191A78AE
:103328006319DB1901321A701F2318229B18DA1946
:103338001F243B1912781B789A42D4D37B6A7222D5
:103348009A5A3B191B789BB2D31899B27B6A72229E
:1033580099527B6A72229B5A1B0A9BB2DAB21949AC
:103368007B6A180000F0BBF87B6A72229B5ADAB2BB
:1033780015497B6A180000F0B2F87B6A72229B5AE2
:1033880019003B191B7880229201D31A99420BDB52
:103398007B6A180000F070F97B6A1800FFF7FAFEE4
:1033A8007B6A72220021995208497B6A2022180000
:1033B80000F095F8C546C046BD460EB080BCB8467C
:1033C800F0BDC046240400002504000001040000EC
:1033D80090B585B000AF78600E243B1900221A80A2
:1033E800104A7B681100180000F020F803001A004A
:1033F8003B191A803B193A19128812021A800A4A94
:103408007B681100180000F011F8030099B23B190D
:103418003A1912888A181A803B191B881800BD4669
:1034280005B090BD260400002704000090B585B0C3
:1034380000AF78600A00BB1C1A800C217B180F2291
:103448001A70BB1C1B881B0A9BB2DAB27B185A7015
:10345800BB1C1B88DAB20C007B189A707B681800BA
:1034680000F01BF87B68586DFA239B00391903227A
:1034780002F09AFC7B68586DFA239B000B243919DB
:10348800012202F0E9FD7B68180000F017F83B19EB
:103498001B781800BD4605B090BD80B582B000AF5E
:1034A80078607B68D86C7B6850229B5A0022190090
:1034B80001F044FDC046BD4602B080BD80B582B073
:1034C80000AF78607B68D86C7B6850229B5A0122D9
:1034D800190001F033FDC046BD4602B080BD90B56D
:1034E80085B000AF786008001100BB1C021C1A8070
:1034F8007B1C0A1C1A700C217B18F0221A70BB1C4A
:103508001B881B0A9BB2DAB27B185A70BB1C1B883B
:10351800DAB27B189A700C007B187A1C1278DA7071
:103528007B681800FFF7B9FF7B68586D01235B4281
:103538003919042202F038FC7B681800FFF7BEFF37
:10354800C046BD4605B090BD80B584B000AFF860F8
:10355800B9607A601A00BB1C1A80BB685822C02167
:103568009954BB685922A8219954BB685A220A2148
:103578009954BB685B2202219954BB685C22C02124
:103588009954BB685D22A8219954BB685E220A2120
:103598009954BB685F2201219954BB686022FF21BE
:1035A8009954BB686122FF219954BB686222FF21AC
:1035B8009954BB68632200219954BB686422012195
:1035C8009954BB68652202219954BB68662203217D
:1035D8009954BB68672204219954BB686822052165
:1035E8009954BB68692206219954BB686A22502104
:1035F8009952BB688021802212065A50BB68FA682B
:103608005A65BB687A685A62BB68BA1C12881A8500
:10361800BB68BA69DA62BB681C22BA1812881A86B3
:10362800BB683A6A5A63BB682422BA1812881A8798
:10363800BB68BA6ADA63BB682C22BA1840211288C0
:103648005A52BB683A6B5A64BB683422BA1848218C
:1036580012885A52BB68BA6BDA64BB683C22BA1843
:10366800502112885A52BB68180000F005F8C0466D
:10367800BD4604B080BD000080B582B000AF786060
:103688007B68586B7B681B8F0022190001F056FC81
:103698000A2000F047FA7B68586B7B681B8F012271
:1036A800190001F04BFC642000F03CFA7B68802292
:1036B80000211800FFF713FF012000F033FA7B68A0
:1036C800012216211800FFF70AFF012000F02AFA4C
:1036D8007B680F2217211800FFF701FF012000F077
:1036E80021FA7B68A02218211800FFF7F8FE0120B4
:1036F80000F018FA7B68012219211800FFF7EFFE85
:10370800012000F00FFA7B685C229A5C7B6801213B
:103718001800FFF7E4FE012000F004FA7B685D2240
:103728009A5C7B6802211800FFF7D9FE012000F09F
:10373800F9F97B685E229A5C7B6803211800FFF721
:10374800CEFE012000F0EEF97B685F229A5C7B6870
:1037580004211800FFF7C3FE012000F0E3F97B689D
:1037680064229A5C7B6809211800FFF7B8FE0120E3
:1037780000F0D8F97B6865229A5C7B680A211800FA
:10378800FFF7ADFE012000F0CDF97B6866229A5C58
:103798007B680B211800FFF7A2FE012000F0C2F998
:1037A8007B6867229A5C7B680C211800FFF797FEFC
:1037B800012000F0B7F97B6868229A5C7B680D21CC
:1037C8001800FFF78CFE012000F0ACF97B68692235
:1037D8009A5C7B680E211800FFF781FE012000F03B
:1037E800A1F97B6860229A5C7B6805211800FFF7C5
:1037F80076FE012000F096F97B6861229A5C7B686E
:1038080006211800FFF76BFE012000F08BF97B689A
:1038180062229A5C7B6807211800FFF760FE01208E
:1038280000F080F97B6863229A5C7B6808211800A5
:10383800FFF755FE012000F075F97B6858229A5C65
:103848007B680F211800FFF74AFE012000F06AF993
:103858007B6859229A5C7B6810211800FFF73FFEAD
:10386800012000F05FF97B685A229A5C7B6811217D
:103878001800FFF734FE012000F054F97B685B2242
:103888009A5C7B6812211800FFF729FE012000F0DE
:1038980049F97B6803221A211800FFF720FE01204E
:1038A80000F040F97B6803221B211800FFF717FE80
:1038B800012000F037F938497B6808221800FFF723
:1038C8000EFE012000F02EF934497B680022180012
:1038D800FFF705FE012000F025F931497B68002239
:1038E8001800FFF7FCFD012000F01CF92D497B684A
:1038F80000221800FFF7F3FD012000F013F92A4910
:103908007B6808221800FFF7EAFD012000F00AF999
:1039180026497B6800221800FFF7E1FD012000F02E
:1039280001F923497B6800221800FFF7D8FD012020
:1039380000F0F8F81F497B6800221800FFF7CFFD58
:10394800012000F0EFF88023D9007B6802221800DC
:10395800FFF7C5FD012000F0E5F817497B68132241
:103968001800FFF7BCFD012000F0DCF813497B6864
:1039780088221800FFF7B3FD012000F0D3F81049A2
:103988007B6801221800FFF7AAFD322000F0CAF870
:10399800C046BD4602B080BD1E0400001E050000E2
:1039A8001E0600001E0700001F0400001F0500007F
:1039B8001F0600001F0700000404000005040000A3
:1039C800010400000D488546FEF70CFF0C480D4920
:1039D8000D4A002302E0D458C4500433C4188C4262
:1039E800F9D30A4A0A4C002301E013600432A242C8
:1039F800FBD305F0ADFFFEF783FAFEE700200020B9
:103A0800000000200C000020189D00080C00002079
:103A180048060020FEE7000080B582B000AFFB1D1D
:103A280000221A700B4B1A680A4B802149000A437E
:103A38001A60032000F010F8031E03D0FB1D0122BA
:103A48001A7001E0FEF700FEFB1D1B781800BD464A
:103A580002B080BD0020024090B585B000AF78600C
:103A68000F23FB1800221A701D4B1B78002B2BD03C
:103A78001C4B1C681A4B1B781900FA239800FCF79A
:103A88003BFB030019002000FCF736FB030018007D
:103A980000F0BBFD031E12D17B68032B0AD879689E
:103AA80001235B420022180000F08AFD0E4B7A6861
:103AB8001A600DE00F23FB1801221A7008E00F238B
:103AC800FB1801221A7003E00F23FB1801221A7059
:103AD8000F23FB181B781800BD4605B090BDC046E3
:103AE80008000020000000200400002080B500AF7E
:103AF800054B1B781A00054B1B68D218034B1A603C
:103B0800C046BD4680BDC0460800002044060020CF
:103B180080B500AF024B1B681800BD4680BDC0468B
:103B28004406002080B584B000AF7860FFF7F0FF4E
:103B38000300BB607B68FB60FB68013305D00A4B60
:103B48001B781A00FB689B18FB60C046FFF7E0FF74
:103B58000200BB68D31AFA689A42F7D8C046C04632
:103B6800BD4604B080BDC0460800002080B582B0C4
:103B780000AF786039607B681B68054A1A403B686B
:103B88001A437B681A60C046BD4602B080BDC04675
:103B9800FFFF3FFE80B582B000AF78607B681A688F
:103BA800E0235B0413401800BD4602B080BD80B519
:103BB80084B000AFF860B9607A60FB685B69BA6886
:103BC80004210A40072191400A00D2431A40BB68E9
:103BD80004210B40796899400B001A43FB685A612D
:103BE800C046BD4604B080BD80B582B000AF7860E5
:103BF80039607B685B693A6804210A400721914073
:103C08000A001A403B6804210B40DA4013001800F0
:103C1800BD4602B080BD80B584B000AFF860B96021
:103C28007A60FB689B6ABA681F210A400F2191409D
:103C38000A00D2431A407B689B0E0F211940BB68CB
:103C48001F20034099400B001A43FB689A62C04644
:103C5800BD4604B080BD80B582B000AF78603960E1
:103C68007B689A6A3B685B035B0B1A437B689A62C2
:103C7800C046BD4602B080BD80B582B000AF786056
:103C880039607B689B6A3A685203520BD2431A40E8
:103C98007B689A62C046BD4602B080BD80B584B0DC
:103CA80000AFF860B9607A60FB685B69BA681202B5
:103CB800D2431A40BB681B0279680B4004490B4089
:103CC8001A43FB685A61C046BD4604B080BDC04671
:103CD80000FFFF0780B582B000AF78607B689B6803
:103CE800054A1340802252051A437B689A60C046F1
:103CF800BD4602B080BDC046E8FFFF6F80B582B008
:103D080000AF78607B689A6880235B051A4080233F
:103D18005B059A4201D1012300E000231800BD464B
:103D280002B080BD80B582B000AF78607B689B68C8
:103D380001221340012B01D1012300E000231800C8
:103D4800BD4602B080BD80B582B000AF78607B68A8
:103D58009B6804221340042B01D1012300E00023B7
:103D68001800BD4602B080BD80B588B000AF78604D
:103D78001F23FB1800221A700023BB6100237B61FC
:103D88000023FB607B68002B01D101237FE17B6866
:103D98009B6D002B0AD17B681800FDF77BF97B68C7
:103DA8000022DA657B685422002199547B681B68DD
:103DB8001800FFF7A3FF031E15D17B681B681800C6
:103DC800FFF788FFB44B1B68B4491800FCF794F957
:103DD800030001335B00FB6002E0FB68013BFB6012
:103DE800FB68002BF9D17B681B681800FFF786FF7A
:103DF800031E0FD17B689B6D10221A437B689A655E
:103E08007B68DB6D01221A437B68DA651F23FB1888
:103E180001221A707B681B681800FFF794FF0300E3
:103E28003B617B689B6D1022134000D022E13B6907
:103E3800002B00D01EE17B689B6D994A134002223B
:103E48001A437B689A657B681B681800FFF76AFF4E
:103E5800031E00D0ADE07B689A687B681B7E9B03DD
:103E68001A437B685B7EDB031A437B689B7E5B039C
:103E78001A437B681B6B002B02D080235B0100E098
:103E880000231A437B68DB681A437B681B69002B95
:103E980004DA7B681B695B005B0801E080239B03F5
:103EA8001A437B682C215B5C5B001343BA6913439C
:103EB800BB617B6820229B5C012B15D17B689B7EB4
:103EC800002B05D1BB69802252021343BB610BE072
:103ED8007B689B6D20221A437B689A657B68DB6D43
:103EE80001221A437B68DA657B685B6A002B0AD07B
:103EF8007B685A6AE0235B001A407B689B6A13431D
:103F0800BA691343BB617B681B68DB68654A134069
:103F180019007B681B68BA690A43DA607B685B68CA
:103F28009B0F9A077B68DB6C13437A6913437B61A9
:103F38007B683C229B5C012B11D17B685B689B0FE3
:103F48009A077B681B6C1A437B685B6C1A437B6817
:103F58009B6C1A437B691343012213437B617B6883
:103F68001B681B69504A134019007B681B687A69F3
:103F78000A431A617B685A68C0231B069A4218D004
:103F88007B685A688023DB059A4212D07B685A689E
:103F980080231B069A420CD0444B1B68444A1340AA
:103FA80019007B685A68F0239B031A403F4B0A4369
:103FB8001A607B6818687B685B6B1A000021FFF742
:103FC800F6FD7B6818687B689B6B3A491A00FFF717
:103FD800EEFD7B681B69002B09D17B681B689A6A18
:103FE8007B681B68102149420A439A6218E07B6883
:103FF8001A6980239B039A4212D17B681B689B6ACB
:104008007B68DB69013B9B001C2213401022524253
:104018009A4011007B681A6E7B681B680A439A6293
:104028007B681B6800211800FFF7DEFD02007B6833
:104038005B6B9A420BD17B680022DA657B689B6DCB
:104048000322934301221A437B689A651CE07B682C
:104058009B6D1222934310221A437B689A657B68F2
:10406800DB6D01221A437B68DA651F23FB180122E6
:104078001A7009E07B689B6D10221A437B689A6569
:104088001F23FB1801221A701F23FB181B78180026
:10409800BD4608B080BDC04600000020400D0300AA
:1040A800FDFEFFFF0102FEFF02FCFF1F0827014083
:1040B800FFFFC3FF04FFFF0780B586B000AF78603D
:1040C80039601723FB1800221A700023FB607B68F5
:1040D80054229B5C012B01D10223C0E17B6854224E
:1040E800012199547B681B681800FFF72CFE031EFA
:1040F80000D0A3E13B685B68022B00D143E17B68F9
:104108001A6980231B069A4204D07B681B69C14A3E
:10411800934208D17B681A683B681B681900100035
:10412800FFF799FDC9E07B681A6E3B685B681F2141
:104138000B400F2199400B00DB43134019003B68EB
:104148001B685B035B0B05D13B681B689B0E1F223A
:10415800134098E03B681B680122134000D091E0AF
:104168003B681B680222134000D089E03B681B684B
:104178000422134000D081E03B681B6808221340EA
:1041880000D079E03B681B681022134000D071E032
:104198003B681B682022134000D069E03B681B681D
:1041A8004022134000D061E03B681B688022134026
:1041B80000D059E03B681A6880235B00134051D156
:1041C8003B681A6880239B00134049D13B681A68F2
:1041D8008023DB00134041D13B681A6880231B0110
:1041E800134039D13B681A6880235B01134031D1F1
:1041F8003B681A6880239B01134029D13B681A68E1
:104208008023DB01134021D13B681A6880231B02FD
:10421800134019D13B681A6880235B02134011D1FF
:104228003B681A6880239B02134009D13B681A68CF
:104238008023DB02134001D0122324E0002322E074
:10424800112320E010231EE00F231CE00E231AE0A8
:104258000D2318E00C2316E00B2314E00A2312E0C8
:10426800092310E008230EE007230CE006230AE0E8
:10427800052308E0042306E0032304E0022302E008
:10428800012300E000233A6852681F20024093404F
:104298000A001A437B681A663B685B689B085A1CCD
:1042A8007B68DB699A4208D87B6818683B6859685C
:1042B8003B681B681A00FFF7AEFC7B6818683B6810
:1042C80019683B689B681A00FFF7E8FC3B681B68A5
:1042D800002B00DBBCE0504B1800FFF75BFC030031
:1042E8003B613B681B684D4A934222D13A6980235F
:1042F8001B0413401DD13B69802212041343464A14
:1043080019001000FFF732FC454B1B68454918009F
:10431800FBF7F2FE03005A1C13005B009B189B007E
:10432800FB6002E0FB68013BFB60FB68002BF9D1F6
:104338008EE03B681B683C4A93420ED13A69802361
:104348005B04134009D13B69802252041343324A6B
:1043580019001000FFF70AFC7AE03B681B68334A33
:10436800934200D074E03A698023DB03134000D005
:104378006EE03B698022D2031343274A19001000DC
:10438800FFF7F4FB64E07B681A6980231B069A42F6
:1043980004D07B681B691F4A934207D17B681A685F
:1043A8003B681B6819001000FFF766FC3B681B6838
:1043B800002B4DDA184B1800FFF7ECFB03003B61AC
:1043C8003B681B68154A934208D13B69184A134059
:1043D800114A19001000FFF7C9FB39E03B681B6858
:1043E800114A934208D13B69124A13400A4A1900FC
:1043F8001000FFF7BBFB2BE03B681B680B4A93429E
:1044080026D13B690C4A1340034A19001000FFF7F4
:10441800ADFB1DE00400008008270140001000B03B
:1044280000000020400D0300004000B8002000B448
:10443800FFFF7FFFFFFFFFFEFFFFBFFF7B689B6D56
:1044480020221A437B689A651723FB1801221A70E9
:104458007B685422002199541723FB181B781800F5
:10446800BD4606B080BDC04680B582B000AF020030
:10447800FB1D1A70FB1D1B787F2B09D8FB1D1B78B1
:104488001A001F231A40044B012191400A001A60A8
:10449800C046BD4602B080BD00E100E090B583B0E3
:1044A80000AF02003960FB1D1A70FB1D1B787F2BC3
:1044B80028D82F4AFB1D1B785BB29B08C0339B0092
:1044C8009B58FA1D1278110003220A40D200FF21DE
:1044D80091400A00D2431A4011003B689B01FF2219
:1044E8001A40FB1D1B78180003230340DB009A4089
:1044F8001F48FB1D1B785BB29B080A43C0339B0017
:104508001A5031E01B4AFB1D1B7819000F230B4082
:10451800083B9B0806339B00D31804331B68FA1D1D
:104528001278110003220A40D200FF2191400A00AC
:10453800D2431A4011003B689B01FF221A40FB1D21
:104548001B78180003230340DB009A400948FB1D31
:104558001B781C000F232340083B9B080A430633A3
:104568009B00C31804331A60C046BD4603B090BD13
:1045780000E100E000ED00E080B582B000AF7860B7
:104588007B685A1E80235B049A4201D3012310E002
:104598000A4B7A68013A5A6001235B4203211800EA
:1045A800FFF77CFF054B00229A60044B07221A6034
:1045B80000231800BD4602B080BDC04610E000E0F0
:1045C80080B584B000AFB9607A600F217B18021CF7
:1045D8001A70BA687B181B785BB211001800FFF7D5
:1045E8005DFFC046BD4604B080BD80B582B000AF57
:1045F8000200FB1D1A70FB1D1B785BB21800FFF749
:1046080033FFC046BD4602B080BD80B582B000AF62
:1046180078607B681800FFF7AFFF03001800BD46FD
:1046280002B080BD80B582B000AF78607B68002B97
:1046380001D1012377E07B681B683D4A94466344B7
:1046480014211800FBF758FD03009A007B681A64D0
:104658007B682522022199547B681B681A687B684D
:104668001B6834490A401A607B681B6819687B68B4
:104678009A687B68DB681A437B681B691A437B6806
:104688005B691A437B689B691A437B68DB691A4339
:104698007B681B6A1A437B681B680A431A607B683D
:1046A800180000F097FA7B689A688023DB019A4229
:1046B80002D17B6800225A607B685A687B685B6C11
:1046C8003F210A401A607B689B6C7A68D26C5A60FA
:1046D8007B685B68002B11D07B685B68042B0DD866
:1046E8007B68180000F0A2FA7B681B6D00221A6034
:1046F8007B685B6D7A68926D5A6008E07B6800227F
:104708001A657B6800225A657B6800229A657B6877
:104718000022DA637B682522012199547B682422D0
:104728000021995400231800BD4602B080BDC04640
:10473800F8FFFDBF0F80FFFF80B586B000AFF860BF
:10474800B9607A603B601723FB1800221A70FB6877
:1047580024229B5C012B01D102236FE0FB682422F9
:1047680001219954FB6825229B5CDBB2012B57D1B0
:10477800FB68252202219954FB680022DA63FB6852
:104788001B681A68FB681B6801218A431A603B682A
:104798007A68B968F86800F0DDF9FB681B6B002BD4
:1047A80008D0FB681B681A68FB681B680E210A435F
:1047B8001A600FE0FB681B681A68FB681B68042115
:1047C8008A431A60FB681B681A68FB681B680A2121
:1047D8000A431A60FB685B6C1A6880235B0213400B
:1047E80008D0FB685B6C1A68FB685B6C8021490029
:1047F8000A431A60FB681B6D002B08D0FB681B6D11
:104808001A68FB681B6D802149000A431A60FB681F
:104818001B681A68FB681B6801210A431A600AE0D2
:10482800FB688022DA63FB6824220021995417234D
:10483800FB1801221A701723FB181B781800BD46B5
:1048480006B080BD80B582B000AF78607B68002B71
:1048580001D1012350E07B6825229B5CDBB2022B4F
:1048680008D07B680422DA637B68242200219954EB
:10487800012341E07B681B681A687B681B680E216E
:104888008A431A607B685B6C1A687B685B6C1C499E
:104898000A401A607B681B681A687B681B680121DC
:1048A8008A431A60174B59687B681B6C1C2213409B
:1048B80001229A40134B0A435A607B689B6C7A68C2
:1048C800D26C5A607B681B6D002B0CD07B681B6D0B
:1048D8001A687B681B6D0A490A401A607B685B6D21
:1048E8007A68926D5A607B682522012199547B6809
:1048F80024220021995400231800BD4602B080BD2F
:10490800FFFEFFFF0000024080B584B000AF786072
:104918000F217B1800221A707B6825229B5CDBB272
:10492800022B06D07B680422DA637B1801221A70F6
:1049380049E07B681B681A687B681B680E218A43FC
:104948001A607B681B681A687B681B6801218A43A8
:104958001A607B685B6C1A687B685B6C1D490A404F
:104968001A601D4B59687B681B6C1C22134001227E
:104978009A40194B0A435A607B689B6C7A68D26CE0
:104988005A607B681B6D002B0CD07B681B6D1A6806
:104998007B681B6D0F490A401A607B685B6D7A68FB
:1049A800926D5A607B682522012199547B682422E4
:1049B800002199547B689B6B002B04D07B689B6B10
:1049C8007A68100098470F23FB181B781800BD461B
:1049D80004B080BDFFFEFFFF0000024080B584B038
:1049E80000AF7860554B1B68FB607B681B681B68D1
:1049F800BB607B681B6C1C22134004229A40130086
:104A0800FA68134027D0BB680422134023D07B6880
:104A18001B681B682022134007D17B681B681A6833
:104A28007B681B6804218A431A60444B59687B6879
:104A38001B6C1C22134004229A40404B0A435A60C4
:104A48007B681B6B002B00D173E07B681B6B7A685B
:104A5800100098476DE07B681B6C1C2213400222F3
:104A68009A401300FA6813402ED0BB680222134004
:104A78002AD07B681B681B68202213400BD17B68F7
:104A88001B681A687B681B680A218A431A607B685E
:104A9800252201219954294B59687B681B6C1C22DB
:104AA800134002229A40254B0A435A607B6824220D
:104AB800002199547B68DB6A002B3AD07B68DB6A5B
:104AC8007A681000984734E07B681B6C1C221340FE
:104AD80008229A401300FA6813402BD0BB680822BA
:104AE800134027D07B681B681A687B681B680E21F7
:104AF8008A431A60114B59687B681B6C1C2213404F
:104B080001229A400D4B0A435A607B680122DA63FE
:104B18007B682522012199547B682422002199541D
:104B28007B685B6B002B05D07B685B6B7A68100039
:104B38009847C046C046BD4604B080BD000002404C
:104B480080B582B000AF78607B68DB6B1800BD462B
:104B580002B080BD80B584B000AFF860B9607A60FB
:104B68003B60FB689B6CFA68D26C5A60FB681B6DF3
:104B7800002B04D0FB685B6DFA68926D5A60144B89
:104B88005968FB681B6C1C22134001229A40104B89
:104B98000A435A60FB681B683A685A60FB689B685E
:104BA800102B08D1FB681B687A689A60FB681B6841
:104BB800BA68DA6007E0FB681B68BA689A60FB6845
:104BC8001B687A68DA60C046BD4604B080BDC0463E
:104BD8000000024080B584B000AF78607B681B6C31
:104BE8009B08104A944663449B001A007B685A64E9
:104BF8007B681B681A00FF231340083B1421180028
:104C0800FBF77AFA0300FB607B68074A9A64FB6843
:104C18001F22134001229A407B68DA64C046BD46D1
:104C280004B080BD008200108008024080B584B0C6
:104C380000AF78607B685B683F221340FB60FB68CD
:104C48000A4A944663449B001A007B681A657B688D
:104C5800074A5A65FB68013B0322134001229A4028
:104C68007B689A65C046BD4604B080BD3F8200108F
:104C78004009024080B586B000AF786039600023F3
:104C88007B6147E13B681B6801217A6991400A0012
:104C98001340FB60FB68002B00D138E13B685B6880
:104CA80003221340012B05D03B685B6803221340A5
:104CB800022B30D17B689B683B617B695B000322D8
:104CC8009A401300DA433B6913403B613B68DA685A
:104CD8007B695B009A4013003A6913433B617B6828
:104CE8003A699A607B685B683B6101227B699A40FC
:104CF8001300DA433B6913403B613B685B681B095F
:104D080001221A407B699A4013003A6913433B61B8
:104D18007B683A695A603B685B6803221340032B3F
:104D280017D07B68DB683B617B695B0003229A4094
:104D38001300DA433B6913403B613B689A687B691F
:104D48005B009A4013003A6913433B617B683A69F8
:104D5800DA603B685B6803221340022B23D17B692E
:104D6800DA087B6808329200D3583B617B690722D6
:104D780013409B000F229A401300DA433B6913400B
:104D88003B613B681A697B6907210B409B009A408D
:104D980013003A6913433B617B69DA087B68083280
:104DA80092003969D1507B681B683B617B695B0065
:104DB80003229A401300DA433B6913403B613B6886
:104DC8005B6803221A407B695B009A4013003A69CA
:104DD80013433B617B683A691A603B685A68C02391
:104DE8009B02134000D192E0504A7B699B0818331C
:104DF8009B009B583B617B6903221340DB000F2219
:104E08009A401300DA433B6913403B617A68A02358
:104E1800DB059A4213D07B68454A93420DD07B68E4
:104E2800444A934207D07B68434A934201D1032303
:104E380006E0052304E0022302E0012300E000234A
:104E48007A6903210A40D20093403A6913433B61CF
:104E580036497B699B0818339B003A695A50334B93
:104E68001B683B61FB68DA433B6913403B613B6865
:104E78005A6880235B03134003D03A69FB681343E5
:104E88003B612A4B3A691A60284B5B683B61FB68B7
:104E9800DA433B6913403B613B685A6880239B03B4
:104EA800134003D03A69FB6813433B611F4B3A69CF
:104EB8005A601E4A8423D3583B61FB68DA433B6936
:104EC80013403B613B685A6880239B02134003D020
:104ED8003A69FB6813433B61144984223B698B5050
:104EE800124A8023D3583B61FB68DA433B6913407D
:104EF8003B613B685A6880235B02134003D03A69E0
:104F0800FB6813433B61094980223B698B507B69ED
:104F180001337B613B681A687B69DA40131E00D055
:104F2800B0E6C046C046BD4606B080BD0018024087
:104F38000004005000080050000C005080B582B0FA
:104F480000AF786008001100BB1C021C1A807B1C93
:104F58000A1C1A707B1C1B78002B04D0BB1C1A88F7
:104F68007B689A6103E0BB1C1A887B689A62C0461A
:104F7800BD4602B080BD000080B582B000AF02001F
:104F8800BB1D1A80104BDB68BA1D1288134008D06D
:104F98000D4BBA1D1288DA60BB1D1B881800FDF77F
:104FA80073F9094B1B69BA1D1288134008D0064BC8
:104FB800BA1D12881A61BB1D1B88180000F006F87C
:104FC800C046BD4602B080BD0018024080B582B020
:104FD80000AF0200BB1D1A80C046BD4602B080BDAE
:104FE80080B584B000AF7860194B1B68194A13402C
:104FF8001900174B7A680A431A607A6880239B0065
:105008009A421FD1144B1A6813005B009B185B006F
:1050180012491800FBF770F803000133FB6008E041
:10502800FB68002B03D0FB68013BFB6001E0032316
:1050380009E0074B5A698023DB001A408023DB0014
:105048009A42EDD000231800BD4604B080BDC0468A
:1050580000700040FFF9FFFF0000002040420F00F1
:1050680080B500AF034B9A68E023DB0113401800BA
:10507800BD4680BD0010024080B588B000AF7860A2
:105088007B68002B01D10123F3E27B681B680122B6
:10509800134000D17CE0C34B9B6838221340BB61AE
:1050A800C04BDB68032213407B61BB69102B02D124
:1050B8007B69032B02D0BB69082B0BD1B94B1A684B
:1050C80080239B02134062D07B685B68002B5ED113
:1050D8000123CEE27B685A6880235B029A4207D19B
:1050E800B04B1A68AF4B802149020A431A6020E08E
:1050F8007B685A68A023DB029A420ED1A94B1A6832
:10510800A84B8021C9020A431A60A64B1A68A54B0E
:10511800802149020A431A600BE0A24B1A68A14B8E
:10512800A1490A401A609F4B1A689E4B9F490A4042
:105138001A607B685B68002B14D0FEF7E9FC03005B
:105148003B6108E0FEF7E4FC02003B69D31A642BDC
:1051580001D903238DE2934B1A6880239B021340E5
:10516800F0D015E0FEF7D4FC03003B6108E0FEF741
:10517800CFFC02003B69D31A642B01D9032378E2E0
:10518800884B1A6880239B021340F0D100E0C04688
:105198007B681B680222134000D199E0814B9B6811
:1051A80038221340BB617F4BDB68032213407B61CD
:1051B800BB69102B02D17B69022B02D0BB69002B83
:1051C80035D1784B1A688023DB00134005D07B6803
:1051D800DB68002B01D101234BE2724B5B68744AF8
:1051E800134019007B685B691A026E4B0A435A60C8
:1051F800BB69002B12D16B4B1B686E4A1340190018
:105208007B681A69674B0A431A60664B1B68DB0A9E
:1052180007221340684ADA40684B1A60684B1B68DB
:105228001800FEF719FC031E51D0012321E27B6808
:10523800DB68002B30D05B4B1B685E4A13401900BB
:105248007B681A69574B0A431A60564B1A68554BC4
:10525800802149000A431A60FEF75AFC03003B61AB
:1052680008E0FEF755FC02003B69D31A022B01D96E
:105278000323FEE14B4B1A688023DB001340F0D078
:10528800484B5B684A4A134019007B685B691A02FD
:10529800444B0A435A601BE0424B1A68414B494948
:1052A8000A401A60FEF734FC03003B6108E0FEF791
:1052B8002FFC02003B69D31A022B01D90323D8E142
:1052C800384B1A688023DB001340F0D100E0C04659
:1052D8007B681B680822134047D0324B9B683822F2
:1052E8001340182B0AD12F4B1B6E022213403CD0BF
:1052F8007B689B69002B38D10123BAE17B689B69E5
:10530800002B19D0274B1A6E264B01210A431A6627
:10531800FEF7FEFB03003B6108E0FEF7F9FB020025
:105328003B69D31A022B01D90323A2E11D4B1B6E43
:1053380002221340F1D018E01A4B1A6E194B0121C2
:105348008A431A66FEF7E4FB03003B6108E0FEF7B8
:10535800DFFB02003B69D31A022B01D9032388E142
:10536800104B1B6E02221340F1D17B681B6804228C
:10537800134000D1C6E01F23FB1800221A70094B06
:105388009B6838221340202B1ED1064BDB6D02226E
:10539800134000D1B6E07B689B68002B00D0B1E0D9
:1053A800012366E100100240FFFFFEFFFFFFFBFF45
:1053B800FF80FFFFFFC7FFFF0024F400000000206C
:1053C80004000020FFFEFFFFAC4BDA6B80235B0577
:1053D800134001D1012300E00023002B11D0A74B7B
:1053E800DA6BA64B802149050A43DA63A34BDA6BD3
:1053F80080235B051340FB60FB681F23FB18012219
:105408001A709F4B1A6880235B0013401AD19C4B7B
:105418001A689B4B802149000A431A60FEF778FB03
:1054280003003B6108E0FEF773FB02003B69D31AF7
:10543800022B01D903231CE1914B1A6880235B00DE
:105448001340F0D07B689B68012B06D18B4BDA6D3B
:105458008A4B01210A43DA651CE07B689B68052BAF
:105468000CD1864BDA6D854B04210A43DA65834BF0
:10547800DA6D824B01210A43DA650BE07F4BDA6D66
:105488007E4B01218A43DA657C4BDA6D7B4B042124
:105498008A43DA657B689B68002B14D0FEF738FBDB
:1054A80003003B6109E0FEF733FB02003B69D31AB6
:1054B800744A934201D90323DBE0704BDB6D02226F
:1054C8001340F0D013E0FEF723FB03003B6109E033
:1054D800FEF71EFB02003B69D31A6A4A934201D9C0
:1054E8000323C6E0654BDB6D02221340F0D11F2376
:1054F800FB181B78012B05D1604BDA6B5F4B6249B7
:105508000A40DA637B68DB69002B00D1B0E05B4BB3
:105518009B6838221340102B00D178E07B68DB6948
:10552800022B53D1554B1A68544B58490A401A60FC
:10553800FEF7EEFA03003B6108E0FEF7E9FA020025
:105548003B69D31A022B01D9032392E04B4B1A680B
:1055580080239B041340F0D1484BDB684C4A13402E
:1055680019007B681A6A7B685B6A1A437B689B6AC6
:105578001B021A437B68DB6A1A437B681B6B1A435E
:105588003E4B0A43DA603D4B1A683C4B8021490484
:105598000A431A60394BDA68384B802149050A43B7
:1055A800DA60FEF7B5FA03003B6108E0FEF7B0FAEF
:1055B80002003B69D31A022B01D9032359E02F4B70
:1055C8001A6880239B041340F0D051E02B4B1A68D3
:1055D8002A4B2E490A401A60FEF79AFA03003B61EB
:1055E80008E0FEF795FA02003B69D31A022B01D9AD
:1055F80003233EE0214B1A6880239B041340F0D11B
:105608001E4BDA681D4B23490A40DA6030E07B689C
:10561800DB69012B01D101232BE0184BDB687B618F
:105628007B6903221A407B681B6A9A421ED17B69F8
:1056380070221A407B685B6A9A4217D17A69FE2306
:10564800DB011A407B689B6A1B029A420ED17A6979
:10565800F8239B031A407B68DB6A9A4206D17B6970
:105668005B0F5A077B681B6B9A4201D0012300E04D
:1056780000231800BD4608B080BDC0460010024097
:105688000070004088130000FFFFFFEFFFFFFFFEE0
:105698008C80C11FFCFFFEEF80B584B000AF78603E
:1056A80039607B68002B01D10123E9E0764B1B6848
:1056B800072213403A689A421ED9734B1B68072287
:1056C80093431900704B3A680A431A60FEF720FAB0
:1056D8000300FB6009E0FEF71BFA0200FB68D31A1F
:1056E8006A4A934201D90323CAE0674B1B68072221
:1056F80013403A689A42EED17B681B680222134035
:1057080015D07B681B680422134006D0604B9A684A
:105718005F4BE021C9010A439A605D4B9B685D4A73
:10572800134019007B689A68594B0A439A607B6852
:105738001B680122134057D07B685B68012B07D197
:10574800534B1A6880239B0213402BD1012397E007
:105758007B685B68022B07D14D4B1A6880239B043A
:1057680013401FD101238BE07B685B68002B07D1B6
:10577800474B1A688023DB00134013D101237FE0D5
:105788007B685B68032B06D1414B1B6E02221340DA
:1057980008D1012374E03E4BDB6D0222134001D196
:1057A80001236DE03A4B9B680722934319007B68FD
:1057B8005A68374B0A439A60FEF7AAF90300FB6060
:1057C80009E0FEF7A5F90200FB68D31A2F4A9342B5
:1057D80001D9032354E02E4B9B6838221A407B687A
:1057E8005B68DB009A42ECD1274B1B680722134009
:1057F8003A689A421ED2244B1B6807229343190029
:10580800214B3A680A431A60FEF782F90300FB60ED
:1058180009E0FEF77DF90200FB68D31A1B4A9342A0
:1058280001D903232CE0184B1B68072213403A6860
:105838009A42EED17B681B680422134009D0144BAE
:105848009B68154A134019007B68DA68104B0A43B5
:105858009A6000F029F801000D4B9B681B0A0F2283
:105868001A400E4B9200D3581F2213400A00DA4008
:105878000B4B1A600B4B1B681800FEF7EDF8030082
:105888001800BD4604B080BD002002408813000007
:1058980000100240FFF0FFFFFF8FFFFF889C000809
:1058A800000000200400002080B586B000AF3C4B0B
:1058B8009B68382213400FD1394B1B68DB0A07223B
:1058C800134001229A4013003B6039683548FAF7C3
:1058D80013FC03003B615DE0314B9B6838221340A9
:1058E800082B02D1304B3B6154E02D4B9B6838228A
:1058F8001340102B38D12A4BDB6803221340FB607E
:10590800274BDB681B09072213400133BB60FB6888
:10591800032B0DD1B9682448FAF7EEFB03001900F0
:105928001F4BDB681B0A7F2213404B437B610DE052
:10593800B9681C48FAF7E0FB03001900184BDB684C
:105948001B0A7F2213404B437B61C046144BDB6824
:105958005B0F0722134001337B6079687869FAF797
:10596800CBFB03003B6115E00D4B9B6838221340CD
:10597800202B03D180231B023B610BE0084B9B6863
:1059880038221340182B03D1FA23DB013B6101E0D5
:1059980000233B613B691800BD4606B080BDC04688
:1059A800001002400024F40000127A0080B500AF15
:1059B800024B1B681800BD4680BDC0460000002091
:1059C800B0B500AFFFF7F2FF0400FFF749FB030093
:1059D8001A0B054B9200D3581F221340DC402300BA
:1059E8001800BD46B0BDC046C89C000880B586B04A
:1059F80000AF78601323FB1800221A701223FB18DB
:105A080000221A707B681A6880239B02134000D119
:105A1800A3E011203B1800221A707F4BDA6B802319
:105A28005B05134010D17C4BDA6B7B4B8021490519
:105A38000A43DA63784BDA6B80235B051340BB605B
:105A4800BB683B1801221A70744B1A68734B80218B
:105A580049000A431A60FEF75BF80300FB600BE09D
:105A6800FEF756F80200FB68D31A022B04D9132359
:105A7800FB1803221A7005E0684B1A6880235B0044
:105A88001340EDD01323FB181B78002B54D1624B25
:105A9800DA6DC0239B0013407B617B69002B19D012
:105AA8007B685B697A699A4214D05B4BDB6D5C4A10
:105AB80013407B61584BDA6D574B802149020A43EA
:105AC800DA65554BDA6D544B56490A40DA65524B44
